:10000000A6C00000BFC00000BDC00000BBC0000013
:10001000B9C00000B7C00000B5C00000B3C0000008
:10002000B1C00000AFC00000ADC0000053CB000065
:10003000A9C00000A7C00000A5C00000A3C0000028
:10004000A1C000009FC000009DC000009BC0000038
:1000500099C0000097C0000095C0000093C0000048
:1000600091C000008FC000008DC000008BC0000058
:1000700089C00000240350004F004B004B00450096
:100080004E00200043004F004E00540052004F002D
:100090004C004C004500520000001C0348004F007B
:1000A00052004900200043004F002E002C004C005D
:1000B000540044002E000000040309040902290032
:1000C00001010080FA090400000203000000092178
:1000D0001101000122560007050203400005070533
:1000E000810340000512010002000000400D0F9244
:1000F0000000010102000105010905A1011500250B
:100100000135004501750195100509190129108176
:100110000205012507463B0175049501651409395F
:10012000814265009501810126FF0046FF000930EC
:100130000931093209357508950481020600FF0965
:1001400020950181020A212695089102C000112400
:100150001FBECFEFD2E0DEBFCDBF11E0A0E0B1E027
:10016000E8E1FBE102C005900D92AA3FB107D9F783
:1001700022E0AAEFB1E001C01D92A632B207E1F77A
:100180008DD4C8CC3DCF84B7877F84BF0FB6F89499
:10019000A895809160008861809360001092600053
:1001A0000FBE90E080E80FB6F894809361009093C2
:1001B00061000FBE80CA0895089542E360EC82E0BA
:1001C000BAD942E361EC81E0B6C90895DC0198E058
:1001D000FD01892F11928A95E9F780E813968C9397
:1001E000139714968C93149715968C9315971696CF
:1001F0008C93169712969C93129780910D02909172
:100200000E02181619066CF488E0EFE0F2E0019097
:100210000D928A95E1F780910D0290910E0201975F
:10022000B0C08091FA018230A1F048F4882379F0BF
:10023000813009F09CC011961C921E9208C0843037
:1002400009F492C040F0853009F49FC090C082E06C
:100250008CC083E08AC0483009F454C0C8F44330ED
:10026000C9F138F4413091F1C8F514961C921497F5
:1002700071C0453009F44BC0B0F1463009F44CC0B0
:10028000473009F067C08D919C911197846057C0E9
:100290004D3071F160F44A3009F448C008F441C0AF
:1002A0004B3009F057C014961C9214973FC04F3042
:1002B00009F441C010F1403109F445C0413109F061
:1002C00049C08D919C911197906139C014961C92F0
:1002D000149709C013961C9213973CC08FEF149685
:1002E0008C93149737C08FEF13968C93139732C06B
:1002F0008D919C911197926022C08D919C91119744
:1003000091601DC08D919C911197826018C08D9154
:100310009C911197886013C08D919C911197816079
:100320000EC08D919C911197806109C08D919C9117
:100330001197806204C08D919C91119780631196F2
:100340009C938E9307C013961C9213978FEF15966C
:100350008C931597809105029091060201969093D7
:1003600006028093050203C085E08093FA0188E0CD
:10037000FD01AFE0B2E001900D928A95E1F782E0D5
:1003800090E090930E0280930D020895CF92DF9239
:10039000EF92CF93DF93CDB7DEB728970FB6F894DF
:1003A000DEBF0FBECDBF90911D029430A9F56B0149
:1003B000E82E82E08093E9008091E80082FF12C07D
:1003C0008091E80085FF09C040E050E067E070E000
:1003D000CE010196ABD78111F7CF8091E8008B77E2
:1003E0008093E80081E08093E9008091E80080FF3D
:1003F00013C06E2DA601CE010196E8DE40E050E06C
:1004000068E070E0CE01019647D78111F7CF809167
:10041000E8008E778093E80028960FB6F894DEBF48
:100420000FBECDBFDF91CF91EF90DF90CF900895B9
:100430001F93CF93DF93162FD72FC82F109206024A
:10044000109205028D2F9C2F2091050230910602FB
:100450002817390730F4612F7D2F8C2F97DF40DB71
:10046000F1CFDF91CF911F9108952F923F924F923C
:100470006F927F928F92CF92DF92EF92CF93DF9322
:10048000CDB7DEB72B970FB6F894DEBF0FBECDBF4A
:1004900083E090E09B878A878091E7019091E80153
:1004A000A091E90189839A83AB832090EA0130907F
:1004B000EB014090EC016090ED017090EE018090B6
:1004C000EF01C090F001D090F101E090F201809135
:1004D000F3019091F401A091F5018C839D83AE838B
:1004E0008091F6019091F701A091F8018F83988790
:1004F000A98769817A818B819BDF842DB10198DF87
:10050000882DB30195DF8E2DB60192DF6C817D8140
:100510008E818EDF6F81788589858ADF8A859B85CC
:1005200001979B878A87892B21F7C0900601D0907D
:100530000701E09008018E2DB6017ADF6091090174
:1005400070910A0180910B0173DF8E2DB60170DF6F
:1005500060910C0170910D0180910E0169DF8DE0B9
:1005600090E09A83898360900F01709010018090D1
:100570001101C0901201D0901301E0901401882D58
:10058000B30156DF8E2DB60153DF89819A81019721
:100590009A838983892B99F784E08093FB012B96BA
:1005A0000FB6F894DEBF0FBECDBFDF91CF91EF90B5
:1005B000DF90CF908F907F906F904F903F902F90D3
:1005C0000895CF93DF93C9ECD1E0688179818A8166
:1005D0002FDF6B817C818D812BDF6E817F81888510
:1005E00027DF69857A858B8523DF6C857D858E8500
:1005F0001FDF6F85788989891BDF6A897B898C89F0
:1006000017DF6D897E898F8913DF688D798D8A8DDB
:100610000FDF6B8D7C8D8D8DDF91CF9109CFCF93C7
:10062000DF93C5EAD1E0688179818A8101DF6B813E
:100630007C818D81FDDE6E817F818885F9DE698513
:100640007A858B85F5DE6C857D858E85F1DE6F85FF
:1006500078898989EDDE6A897B898C89E9DE6D89F3
:100660007E898F89E5DE688D798D8A8DE1DE6B8DDF
:100670007C8D8D8DDDDE6E8D7F8D88A1D9DE69A1AB
:100680007AA18BA1DF91CF91D3CE2F923F924F923F
:100690006F927F928F92AF92BF92CF92DF92EF9242
:1006A0000F931F93CF93DF93CDB7DEB767970FB646
:1006B000F894DEBF0FBECDBF00E010E020908A01AD
:1006C00030908B0140908C0160908D0170908E0174
:1006D00080908F018091960190919701A09198014F
:1006E000888B998BAA8B8091900190919101A09118
:1006F00092018A879B87AC878091930190919401A6
:10070000A09195018D879E87AF8780910F01909171
:100710001001A09111018C839D83AE83C0901201C2
:10072000D0901301E0901401809115019091160171
:10073000A09117018B8B9C8BAD8B43DF01151105AD
:1007400009F445C0842DB10173DE882DB30170DE3C
:10075000688979898A896CDE6091990170919A0122
:1007600080919B0165DE5BDF1A8219826A857B8539
:100770008C855EDE6D857E858F855ADE89819A81C6
:1007800001969A8389838017910784F360E075E06E
:1007900080E04EDE6091120170911301809114018E
:1007A00047DE6091A5017091A6018091A70140DE0E
:1007B0006091A8017091A9018091AA0139DE6A8532
:1007C0007B858C8535DE6D857E858F8531DE27DFE7
:1007D0001A821982842DB1012BDE882DB30128DE07
:1007E00089819A8101969A8389830817190794F75A
:1007F0008091960190919701A091980189839A83A5
:10080000AB83BC018A2F14DE8091990190919A01EB
:10081000A0919B018F839887A987BC018A2F08DE4E
:1008200060919C0170919D0180919E0101DE60911B
:100830009F017091A0018091A101FADD82E190E019
:100840009F8B8E8B6C817D818E81F2DD8E2DB6012A
:10085000EFDD8E899F8901979F8B8E8B892B91F776
:100860006091A2017091A3018091A401E1DD85E076
:1008700090E09F8B8E8B85E2A82EB12C6C817D81C0
:100880008E81D6DD8E2DB601D3DD91E0A91AB10897
:10089000A9F76B897C898D89CBDD8E899F8901972A
:1008A0009F8B8E8B892B39F70F5F1F4F06301105F9
:1008B00009F043CF86DE842DB101BADD882DB30166
:1008C000B7DD69817A818B81B3DD6F817885898518
:1008D000AFDDA5DE86E090E09A83898320909001C9
:1008E000309091014090920160909301709094013A
:1008F00080909501842DB1019BDD882DB30198DD99
:1009000089819A8101979A838983892B99F760E07D
:1009100075E080E08DDD8E2DB6018ADD6091A50148
:100920007091A6018091A70183DD6091A80170916B
:10093000A9018091AA017CDD60E075E080E078DDAE
:100940008E2DB60175DD842DB10172DD882DB301C8
:100950006FDD84E190E09A8389836C817D818E8153
:1009600067DD8E2DB60164DD89819A8101979A83B6
:100970008983892B91F767960FB6F894DEBF0FBE77
:10098000CDBFDF91CF911F910F91EF90DF90CF906E
:10099000BF90AF908F907F906F904F903F902F902F
:1009A00008952F923F924F926F927F928F92CF92A3
:1009B000DF92EF92FF926C0104DE6091180170915A
:1009C000190180911A0134DD60914801709149014B
:1009D00080914A012DDD60918A0170918B01809197
:1009E0008C0126DD60918D0170918E0180918F01C7
:1009F0001FDD60919601709197018091980118DD3B
:100A00006091990170919A0180919B0111DD07DE3F
:100A1000E12CF12C209090013090910140909201B6
:100A2000609093017090940180909501EC14FD0406
:100A300054F4842DB101FCDC882DB301F9DC8FEF77
:100A4000E81AF80AF3CFC0901201D0901301E09099
:100A5000140160E075E080E0EBDC8E2DB601E8DC8F
:100A60006091A5017091A6018091A701E1DC6091E0
:100A7000A8017091A9018091AA01DADC842DB1014D
:100A8000D7DC882DB301FF90EF90DF90CF908F904F
:100A90007F906F904F903F902F90CACC2F923F92B3
:100AA0004F926F927F928F92AF92BF92CF92DF92CE
:100AB000EF920F931F93CF93DF93CDB7DEB7AC9731
:100AC0000FB6F894DEBF0FBECDBF5DDB78946091AA
:100AD0001B0170911C0180911D01AADC8091120103
:100AE00090911301A091140189839A83AB83BC0177
:100AF0008A2F9EDC60911E0170911F018091200160
:100B000097DC8091FB01811107C0609121017091F8
:100B10002201809123018CDC8091FB01811103C0B3
:100B20001D821C82B9C08091FB01843009F0D7C0BE
:100B300080913F0190914001A09141018C839D8360
:100B4000AE83BC018A2F74DC209081013090820139
:100B500040908301842DB1016BDC6090390170906D
:100B60003A0180903B01882DB30162DCC0905101B5
:100B7000D0905201E09053018E2DB60159DC8E2D9C
:100B8000B60156DC80914B0190914C01A0914D0132
:100B90008F839887A987BC018A2F4ADC6091240142
:100BA000709125018091260143DC8091480190914C
:100BB0004901A0914A018A879B87AC87BC018A2F93
:100BC00037DC60912701709128018091290130DC88
:100BD000882DB3012DDC60914E0170914F01809101
:100BE000500126DC882DB30123DC8E2DB60120DCDC
:100BF0008E2DB6011DDC8E2DB6011ADC60912A0106
:100C000070912B0180912C0113DC6A857B858C858A
:100C10000FDC60912D0170912E0180912F0108DC75
:100C2000609118017091190180911A0101DC6C81A9
:100C30007D818E81FDDB842DB101FADB6091540151
:100C40007091550180915601F3DB609157017091CD
:100C5000580180915901ECDB60913C0170913D019C
:100C600080913E01E5DB6F8178858985E1DB81E05C
:100C700090E097DE609130017091310180913201F6
:100C8000D7DB22E130E03D832C83C0900F01D09070
:100C90001001E090110112C08091020190910301B6
:100CA0002C813D81281739070CF03DCFDEDB2C81EC
:100CB0003D812F5F3F4F3D832C83EECF8E2DB601BC
:100CC000B7DB69817A818B81B3DB8C819D81019750
:100CD0009D838C83892B91F781E08093FB01809128
:100CE000FB018130A9F18091FB01823009F055C1EF
:100CF00000E010E08091C9019091CA01A091CB0160
:100D00008C8F9D8FAE8F8091600190916101A09139
:100D100062018F8F98A3A9A38091630190916401D0
:100D2000A09165018AA39BA3ACA3809166019091D9
:100D30006701A09168018DA39EA3AFA38091690173
:100D400090916A01A0916B0188A799A7AAA71DC1DC
:100D50002BE030E03D832C8398DC8C819D810197D2
:100D60009D838C83892BC1F7BECF8091FC018111BB
:100D70002AC06C8D7D8D8E8D5BDB6091CC01709176
:100D8000CD018091CE0154DB6091CF017091D001F3
:100D90008091D1014DDB6091D2017091D30180919E
:100DA000D40146DB6091D5017091D6018091D701C5
:100DB0003FDB6091D8017091D9018091DA0138DB75
:100DC00081E08093FC0186E0A82EB12C80916C011B
:100DD00090916D01A0916E018B8B9C8BAD8B80915E
:100DE0006F0190917001A09171018E8B9F8BA88FE4
:100DF0008091720190917301A0917401898F9A8FF3
:100E0000AB8F85E090E09CA78BA7809175019091B6
:100E10007601A09177018C839D83AE8380917801C8
:100E200090917901A0917A018F839887A987809109
:100E30007B0190917C01A0917D018A879B87AC8783
:100E400080917E0190917F01A09180018D879E8786
:100E5000AF878091810190918201A0918301888B5D
:100E6000998BAA8B20908401309085014090860157
:100E70006F8D78A189A1DCDA6AA17BA18CA1D8DA77
:100E80006DA17EA18FA1D4DA68A579A58AA5D0DA53
:100E90006B897C898D89CCDA6E897F89888DC8DAE7
:100EA000698D7A8D8B8DC4DA6C817D818E81C0DAFB
:100EB0006F8178858985BCDA6A857B858C85B8DA0F
:100EC0006D857E858F85B4DA688979898A89B0DAFB
:100ED000842DB101ADDA6091870170918801809114
:100EE0008901A6DA60909601709097018090980130
:100EF000882DB3019DDAC0909901D0909A01E090BD
:100F00009B018E2DB60194DA2BA53CA52150310909
:100F10003CA72BA7232B09F0ABCF882DB30188DA90
:100F20008E2DB60185DA882DB30182DA8E2DB601B9
:100F30007FDA609090017090910180909201882DED
:100F4000B30176DAC0909301D0909401E0909501BE
:100F50008E2DB6016DDA31E0A31AB10809F051CF38
:100F6000209030013090310140903201882DB30142
:100F70005FDA8E2DB6015CDA842DB10159DA698110
:100F80007A818B8155DA0F5F1F4F8091000190911C
:100F90000101081719070CF4E8CE8091FB0183309A
:100FA00009F021C12090390130903A0140903B0175
:100FB000842DB1013DDA80914B0190914C01A091BB
:100FC0004D018C839D83AE83BC018A2F31DA842D41
:100FD000B1012EDAC0905101D0905201E09053013E
:100FE0008E2DB60125DA8091480190914901A0919A
:100FF0004A018F839887A987BC018A2F19DA842D2B
:10100000B10116DA8E2DB60113DA8E2DB60110DA83
:1010100080914E0190914F01A09150018A879B874A
:10102000AC87BC018A2F04DA809136019091370198
:10103000A09138018D879E87AF87BC018A2FF8D990
:101040006C817D818E81F4D980915A0190915B01F0
:10105000A0915C0189839A83AB83BC018A2FE8D974
:10106000609057017090580180905901882DB3010C
:10107000DFD9882DB301DCD9882DB301D9D9882DCA
:10108000B301D6D9842DB101D3D96C817D818E81F4
:10109000CFD9609133017091340180913501C8D965
:1010A000842DB101C5D969817A818B81C1D98091A3
:1010B000450190914601A0914701888B998BAA8B9D
:1010C000BC018A2FB5D969817A818B81B1D96889B0
:1010D00079898A89ADD969817A818B81A9D9688911
:1010E00079898A89A5D969817A818B81A1D96F8112
:1010F000788589859DD9842DB1019AD96C817D81AE
:101100008E8196D969817A818B8192D96F81788518
:1011100089858ED969817A818B818AD96F81788519
:10112000898586D9842DB10183D96F817885898598
:101130007FD9882DB3017CD96091540170915501FC
:101140008091560175D9882DB30172D9882DB301CC
:101150006FD9882DB3016CD9882DB30169D9882D39
:10116000B30166D9842DB10163D96C817D818E81F3
:101170005FD96D857E858F855BD96A857B858C85FA
:1011800057D96D857E858F8553D96A857B858C85FA
:101190004FD960913C0170913D0180913E0148D949
:1011A0008E2DB60145D96A857B858C8541D9842DE4
:1011B000B1013ED96A857B858C853AD98E2DB601E1
:1011C00037D98E2DB60134D98E2DB60131D98E2D59
:1011D000B6012ED98E2DB6012BD98E2DB60128D968
:1011E0008E2DB60125D980E090E0AC960FB6F8942C
:1011F000DEBF0FBECDBFDF91CF911F910F91EF905A
:10120000DF90CF90BF90AF908F907F906F904F9076
:101210003F902F900895292F332723303105E1F097
:1012200058F42130310599F02230310569F589E211
:1012300090E02CEB30E02CC02132310501F122325C
:10124000310511F586E590E027EF30E021C082E11D
:1012500090E025EE30E01CC099278130910549F0DF
:1012600028F0029789F4E4E7F0E005C0E8EBF0E04D
:1012700002C0EAE9F0E0849190E09F0109C089E0B2
:1012800090E02EEC30E004C080E090E020E030E020
:10129000FA01318320830895CF92DF92EF92FF927B
:1012A0000F931F93CF93DF93EC018B017A0197D1BA
:1012B000811133C0E114F10439F0F701808191818B
:1012C000081B190BC80FD91FC12CD12C01151105F2
:1012D00019F18091E80085FD16C08091E8008E77B5
:1012E0008093E800FDD3E114F10449F0F701808117
:1012F0009181C80ED91ED182C08285E00EC06FD107
:10130000882321F30AC089918093F10001501109CB
:10131000FFEFCF1ADF0ADACF80E0DF91CF911F9184
:101320000F91FF90EF90DF90CF900895CF92DF92D2
:10133000EF92FF920F931F93CF93DF93EC018B01FA
:101340007A014DD1811133C0E114F10439F0F70174
:1013500080819181081B190BC80FD91FC12CD12C7A
:101360000115110519F18091E80085FD16C08091E5
:10137000E8008B778093E800B3D3E114F10449F0DF
:10138000F70180819181C80ED91ED182C08285E08B
:101390000EC025D1882321F30AC08091F1008993E2
:1013A00001501109FFEFCF1ADF0ADACF80E0DF9199
:1013B000CF911F910F91FF90EF90DF90CF90089504
:1013C00020912402309125022617370748F0611535
:1013D000710539F42091E8002E772093E80001C0D0
:1013E000B901FC0120E06115710569F180911D02D0
:1013F0008823E1F18530E1F18091E80083FD3AC076
:101400008091E80082FD2CC08091E80080FFEBCF46
:101410008091F20090E06115710551F080349105E2
:1014200038F421912093F100615071090196F3CFB6
:1014300021E08034910509F020E08091E8008E776A
:101440008093E800D0CF2111D1CF0AC080911D0236
:10145000882361F0853061F08091E80083FD0AC047
:101460008091E80082FFF2CF80E0089582E0089545
:1014700083E0089581E008952091240230912502AF
:101480002617370748F06115710539F42091E800F7
:101490002E772093E80001C0B901FC0120E061151E
:1014A000710581F180911D02882309F43EC08530C9
:1014B00009F43DC08091E80083FD3BC08091E800C5
:1014C00082FD2DC08091E80080FFE9CF8091F2007D
:1014D00090E06115710559F08034910540F4249134
:1014E0002093F1003196615071090196F2CF21E00D
:1014F0008034910509F020E08091E8008E77809398
:10150000E800CDCF2111CECF0AC080911D028823E3
:1015100061F0853061F08091E80083FD0AC0809120
:10152000E80082FFF2CF80E0089582E0089583E032
:10153000089581E00895982F953068F59093E9001B
:10154000981739F07091EC002091ED005091F00067
:1015500003C0242F762F50E021FD02C09F5FECCF07
:101560003091EB003E7F3093EB003091ED003D7FFA
:101570003093ED003091EB0031603093EB007093CD
:10158000EC002093ED005093F0002091EE0027FD39
:10159000E5CF80E008958F708093E90081E00895A1
:1015A00080911E0287FF11C08091E80082FD05C076
:1015B00080911D028111F8CF11C08091E8008B77D6
:1015C0000BC080911D02882349F08091E80080FFC4
:1015D000F8CF8091E8008E778093E80008952091FD
:1015E000E4003091E50095E64091EC00842F817095
:1015F00040FF23C08091E80080FD1DC080911D0246
:10160000882399F0853099F08091EB0085FD11C019
:101610004091E4005091E5002417350729F39150DB
:1016200011F09A01E1CF84E0089582E0089583E00B
:10163000089581E0089580E008954091E80042FF18
:10164000DDCF089541D043D08091D8008F7780932B
:10165000D8008091D80080688093D8008091D8000D
:101660008F7D8093D80084E089BD86E089BD09B470
:1016700000FEFDCF10921D021092190210921B0263
:1016800010921A0242E360E080E055DF8091E100B1
:101690008E7F8093E1008091E20081608093E20080
:1016A0008091E20088608093E2008091E0008E7F6C
:1016B0008093E0000895E3E6F0E080818E7F8083F0
:1016C00081E080931C02BECF1092E2000895109238
:1016D000E10008951F920F920FB60F9211242F93DD
:1016E0003F934F935F936F937F938F939F93AF93AA
:1016F000BF93EF93FF938091E10082FF0AC0809136
:10170000E20082FF06C08091E1008B7F8093E100C0
:10171000E6D18091E10080FF17C08091E20080FF58
:1017200013C08091E2008E7F8093E2008091E200FE
:1017300080618093E2008091D80080628093D8001D
:1017400019BC10921D0238D58091E10084FF2FC092
:101750008091E20084FF2BC084E089BD86E089BDD2
:1017600009B400FEFDCF8091D8008F7D8093D80012
:101770008091E1008F7E8093E1008091E2008F7E76
:101780008093E2008091E20081608093E20080918A
:101790001902882311F084E007C08091E30087FDDF
:1017A00002C081E001C083E080931D0204D58091D6
:1017B000E10083FF22C08091E20083FF1EC0809180
:1017C000E100877F8093E10082E080931D02109208
:1017D00019028091E1008E7F8093E1008091E20008
:1017E0008E7F8093E2008091E20080618093E2002E
:1017F00042E360E080E09FDE72D1FF91EF91BF9104
:10180000AF919F918F917F916F915F914F913F9198
:101810002F910F900FBE0F901F9018951F93CF938D
:10182000DF93CDB7DEB7AA970FB6F894DEBF0FBE31
:10183000CDBFEEE1F2E08091F100819322E0E6324B
:10184000F207C9F7C2D48091E80083FF30C18091CC
:101850001E0290911F02953009F483C030F491303C
:10186000A9F168F0933091F122C1983009F4EFC0EA
:10187000993009F4FBC0963009F019C194C0803842
:1018800021F0823809F013C108C080911A029091AA
:101890001B02992389F082600FC0809122028F7011
:1018A000853008F004C18093E9008091EB0085FB4E
:1018B000882780F91092E9009091E800977F909333
:1018C000E8008093F1001092F100CCC0282F2D7F0A
:1018D00009F0EDC0882319F0823061F0E8C08091F2
:1018E0002002813009F0E3C0933009F080E080935A
:1018F0001B022EC08091200281112AC080912202F9
:101900008F702FEF280F243008F0D1C08093E900AA
:101910002091EB0020FF1CC0933021F48091EB005C
:10192000806214C09091EB0090619093EB0021E0F5
:1019300030E0A90102C0440F551F8A95E2F7409399
:10194000EA001092EA008091EB0088608093EB003F
:101950001092E9008091E800877F8093E80020DE04
:10196000A6C08111A4C0109120021F778091E300CE
:101970008078812B8093E3008091E800877F8093BB
:10198000E8000EDE8091E80080FFFCCF8091E3004C
:1019900080688093E300111102C082E001C083E0FF
:1019A00080931D0284C08058823008F080C08091EE
:1019B0002002909121028C3D53E0950771F583E060
:1019C0008A838AE289834FB7F894DE01139620E078
:1019D0003EE051E2E32FF0E050935700E49120FF06
:1019E00003C0E295EF703F5FEF708E2F90E0EA301A
:1019F00010F0C79601C0C0968D939D932F5F243140
:101A000049F74FBF8091E800877F8093E8006AE242
:101A100070E0CE010196D4DC14C060912202709176
:101A20002302AE014F5F5F4FF6DBBC01892B09F447
:101A30003EC09091E800977F9093E80089819A8159
:101A40001BDD8091E8008B778093E80030C0803800
:101A500071F58091E800877F8093E80080911902FA
:101A60008093F1008091E8008E7777CF81111FC0BD
:101A7000809120029091210299270297C4F48091CD
:101A8000E800877F8093E80080912002809319020C
:101A900087DD80911902811106C08091E30087FDE6
:101AA00002C081E001C084E080931D0286D3809152
:101AB000E80083FF0AC08091E800877F8093E800F8
:101AC0008091EB0080628093EB00AA960FB6F894A9
:101AD000DEBF0FBECDBFDF91CF911F910895089556
:101AE000CF9380911D02882399F0C091E900CF70B7
:101AF0009091EC00892F817090FD80E8C82B1092A6
:101B0000E9008091E80083FD89DECF70C093E90091
:081B1000CF910895F894FFCF76
:101B18000A004A0102000705000C28000C320008E0
:101B28000F000C05001014000905000F32000732E1
:101B380000018C00020600040A000D0500042C01B7
:101B48000A050002500011050007050008050005F8
:101B580005000605000C05000C0A000C14000C1EFC
:101B6800000C28000005000405000205000305001C
:101B78000705000C0A000005000C05000005000C14
:101B880005000705000C28000005000C05000705E6
:101B9800000C41000705000C28000305000C050097
:101BA8000405000C05000205000C05000705000CE3
:101BB800050010F00A0705000C05000205000C05D9
:101BC800000205000C05000205000C0500020500D6
:101BD8000C05000705000C05000505000C2D000785
:101BE80005000C46000A05000C46000605000C0519
:101BF800000605000C05000350000C050004460013
:0A1C08000C05000128000C0A000082
:00000001FF
